:020000040000FA
:100000000C9435000C945D000C945D000C945D0024
:100010000C945D000C945D000C945D000C945D00EC
:100020000C945D000C945D000C945D000C945D00DC
:100030000C945D000C945D000C945D000C945D00CC
:100040000C94DC010C945D000C944C020C94260280
:100050000C945D000C945D000C945D000C945D00AC
:100060000C945D000C945D00D10311241FBECFEFF2
:10007000D8E0DEBFCDBF21E0A0E4B1E001C01D9219
:10008000AA3EB207E1F711E0A0E0B1E0EEE5FCE046
:1000900002C005900D92A034B107D9F710E0C5E376
:1000A000D0E004C02197FE010E943504C433D1077B
:1000B000C9F70E947E020C942D060C940000AF92AA
:1000C000BF92CF92DF92EF92FF920F931F93CF9345
:1000D000DF936C017B018B01040F151FEB015E01A7
:1000E000AE18BF08C017D10759F06991D601ED913C
:1000F000FC910190F081E02DC6010995892B79F7DB
:10010000C501DF91CF911F910F91FF90EF90DF908C
:10011000CF90BF90AF900895FC01538D448D252F53
:1001200030E0842F90E0821B930B541710F0CF9691
:10013000089501970895FC01918D828D981761F0C3
:10014000A28DAE0FBF2FB11D5D968C91928D9F5FDA
:100150009F73928F90E008958FEF9FEF08952FB7D0
:10016000F8948091450190914601A0914701B0918A
:1001700048012FBF8093510190935201A0935301E6
:10018000B093540189E491E00E949B0097FF26C040
:100190002FB7F8948091450190914601A0914701B5
:1001A000B09148012FBF409151015091520160918F
:1001B000530170915401841B950BA60BB70B409112
:1001C0004D0150914E0160914F0170915001841783
:1001D0009507A607B707B0F28FEF9FEF0895FC01D0
:1001E000918D828D981731F0828DE80FF11D858DEC
:1001F00090E008958FEF9FEF0895FC01918D228D7F
:10020000892F90E0805C9F4F821B91098F73992703
:10021000089589E491E00E94FD0021E0892B09F412
:1002200020E0822F089580E090E0892B29F00E9441
:10023000090181110C9400000895FC01A48DA80F00
:10024000B92FB11DA35ABF4F2C91848D90E0019618
:100250008F739927848FA689B7892C93A089B18938
:100260008C91837080648C93938D848D981306C0D9
:100270000288F389E02D80818F7D80830895EF923D
:10028000FF920F931F93CF93DF93EC0181E0888F50
:100290009B8D8C8D98131AC0E889F989808185FF20
:1002A00015C09FB7F894EE89FF896083E889F989C2
:1002B00080818370806480839FBF81E090E0DF91C4
:1002C000CF911F910F91FF90EF900895F62E0B8D17
:1002D00010E00F5F1F4F0F731127E02E8C8D8E11D2
:1002E0000CC00FB607FCFACFE889F989808185FF39
:1002F000F5CFCE010E941D01F1CFEB8DEC0FFD2F4C
:10030000F11DE35AFF4FF0829FB7F8940B8FEA89F3
:10031000FB8980818062CFCFCF93DF93EC01888D02
:100320008823B9F0AA89BB89E889F9898C9185FD70
:1003300003C0808186FD0DC00FB607FCF7CF8C91FE
:1003400085FFF2CF808185FFEDCFCE010E941D0198
:10035000E9CFDF91CF91089542E050E068E171E08C
:1003600089E491E00C945F000F931F93CF93DF9388
:10037000EC0188819981009759F02A813B812617E9
:10038000370730F081E0DF91CF911F910F910895F1
:100390008B016F5F7F4F0E946005009759F0998332
:1003A00088831B830A832C813D81232B59F7FC0111
:1003B0001082E8CF80E0E7CF1F920F920FB60F9226
:1003C00011242F933F938F939F93AF93BF9380916B
:1003D000450190914601A0914701B09148013091AB
:1003E000440123E0230F2D3758F50196A11DB11DBF
:1003F000209344018093450190934601A0934701C7
:10040000B09348018091400190914101A091420137
:10041000B09143010196A11DB11D809340019093BD
:100420004101A0934201B0934301BF91AF919F91CD
:100430008F913F912F910F900FBE0F901F901895A5
:1004400026E8230F0296A11DB11DD2CF1F920F9255
:100450000FB60F9211242F933F934F935F936F9397
:100460007F938F939F93AF93BF93EF93FF9389E411
:1004700091E00E941D01FF91EF91BF91AF919F917B
:100480008F917F916F915F914F913F912F910F903D
:100490000FBE0F901F9018951F920F920FB60F92DC
:1004A00011242F938F939F93EF93FF93E091590122
:1004B000F0915A018081E0915F01F091600182FD2D
:1004C0001BC09081809162018F5F8F7320916301C7
:1004D000821741F0E0916201F0E0E75BFE4F958FFB
:1004E00080936201FF91EF919F918F912F910F90D7
:1004F0000FBE0F901F9018958081F4CFCF93DF939C
:10050000CDB7DEB72C970FB6F894DEBF0FBECDBFC8
:10051000789484B5826084BD84B5816084BD85B5DE
:10052000826085BD85B5816085BD80916E008160EA
:1005300080936E0010928100809181008260809390
:100540008100809181008160809381008091800092
:100550008160809380008091B10084608093B100BD
:100560008091B00081608093B00080917A008460B7
:1005700080937A0080917A00826080937A008091E3
:100580007A00816080937A0080917A0080688093FD
:100590007A001092C100E0915901F0915A0182E075
:1005A0008083E0915501F09156011082E09157014E
:1005B000F09158018FEC808310926101E0915D0110
:1005C000F0915E0186E08083E0915B01F0915C0137
:1005D000808180618083E0915B01F0915C0180818A
:1005E00088608083E0915B01F0915C01808180688C
:1005F0008083E0915B01F0915C0180818F7D80833D
:1006000049E150E06BE171E089E491E00E945F0014
:100610000E94AC0180E0E82E80E0F82E89E491E0B1
:100620000E94FD00892B09F499C018861F821A8642
:1006300019861C861B8670E060E0CE0107960E943A
:10064000B4012F81388581112EC02115310519F093
:10065000C9010E94D70418861F821C861B861A8631
:1006600019860E94AF0097FD26C08A30910519F1C6
:1006700089831A820B851C850F5F1F4FB801CE013D
:1006800007960E94B401882361F32F8138858B85FA
:100690009C85BE016F5F7F4F820F931F0E942606CD
:1006A0001C870B87DECF1C861B866AE171E0C901BF
:1006B0000E942606D6CF1A8219821C821B821E82B5
:1006C0001D826AE070E0CE0101960E94B40129818A
:1006D0003A8181114FC02115310519F0C9010E94DD
:1006E000D7041A8219821E821D821C821B82CF802F
:1006F000D884C114D10409F447C00B851C850115A9
:100700001105B1F08D819E81080F191FB801CE012E
:1007100001960E94B4018823B9F129813A818D8123
:100720009E81B601820F931F0E9426061E830D83B1
:100730004D815E8169817A8189E491E00E945F0048
:100740000E94AC0189819A81009711F00E94D70420
:100750008F819885009711F00E94D704E114F1046D
:1007600009F45CCF0E940901882309F457CF0E9445
:10077000000054CF8AE090E09E838D8365E371E0B2
:10078000C9010E942606B3CF89819A81009711F092
:100790000E94D7041A8219821E821D821C821B822B
:1007A000C7CFE9E4F1E01382128288EE93E0A0E083
:1007B000B0E084839583A683B7838AE091E0918338
:1007C000808385EC90E09587848784EC90E0978720
:1007D000868780EC90E0918B808B81EC90E0938B0E
:1007E000828B82EC90E0958B848B86EC90E0978BEB
:1007F000868B118E128E138E148E08952F923F9237
:100800004F925F926F927F928F929F92AF92BF9220
:10081000CF92DF92EF92FF920F931F93CF93DF93CC
:10082000CDB7DEB7CA1BDB0B0FB6F894DEBF0FBE29
:10083000CDBF09942A88398848885F846E847D8476
:100840008C849B84AA84B984C884DF80EE80FD8078
:100850000C811B81AA81B981CE0FD11D0FB6F894EE
:10086000DEBF0FBECDBFED010895EE0FFF1F059057
:10087000F491E02D09940F931F93CF93DF9382306F
:10088000910510F482E090E0E091E801F091E90137
:1008900030E020E0B0E0A0E0309799F42115310578
:1008A00009F44AC0281B390B24303105D8F58A8158
:1008B0009B816115710589F1FB0193838283FE01A0
:1008C00011C0408151810281138148175907E0F01E
:1008D0004817590799F4109761F012960C931297E4
:1008E00013961C933296CF01DF91CF911F910F91F8
:1008F00008950093E8011093E901F4CF2115310523
:1009000051F04217530738F0A901DB019A01BD01EC
:10091000DF01F801C1CFEF01F9CF9093E901809396
:10092000E801CDCFFE01E20FF31F81939193225096
:10093000310939832883D7CF2091E6013091E7012F
:10094000232B41F420910201309103013093E70100
:100950002093E6012091000130910101211531051C
:1009600041F42DB73EB74091040150910501241B7D
:10097000350BE091E601F091E701E217F307A0F4EF
:100980002E1B3F0B2817390778F0AC014E5F5F4FE5
:100990002417350748F04E0F5F1F5093E70140932F
:1009A000E601819391939FCFF0E0E0E09CCFCF935D
:1009B000DF930097E9F0FC01329713821282A09135
:1009C000E801B091E901ED0130E020E01097A1F4D9
:1009D00020813181820F931F2091E6013091E70140
:1009E0002817390709F061C0F093E701E093E601A9
:1009F000DF91CF910895EA01CE17DF07E8F54A812C
:100A00005B819E0141155105B1F7E901FB83EA8342
:100A100049915991C40FD51FEC17FD0761F48081EE
:100A200091810296840F951FE901998388838281C1
:100A300093819B838A83F0E0E0E012968D919C91F4
:100A400013970097B9F52D913C911197CD0102961E
:100A5000820F931F2091E6013091E7012817390793
:100A600039F6309751F51092E9011092E801B093F0
:100A7000E701A093E601BCCFD383C28340815181BB
:100A8000840F951FC817D90761F44E5F5F4F8881A7
:100A90009981480F591F518340838A819B81938399
:100AA00082832115310509F0B0CFF093E901E0937D
:100AB000E8019ECFFD01DC01C0CF13821282D7CFA7
:100AC000B0E0A0E0E6E6F5E00C9400048C010097AD
:100AD00051F4CB010E943B048C01C801CDB7DEB7B5
:100AE000E0E10C941C04FC01E60FF71F9C0122506E
:100AF0003109E217F30708F49DC0D901CD91DC91CB
:100B00001197C617D70798F0C530D10530F3CE013D
:100B100004978617970708F3C61BD70B2297C19334
:100B2000D1936D937C93CF010E94D704D6CF5B0104
:100B3000AC1ABD0A4C018C0E9D1EA091E801B0912B
:100B4000E901512C412CF12CE12C109731F58091C9
:100B5000E6019091E7018815990509F05CC04616F9
:100B6000570608F058C0809100019091010100974C
:100B700041F48DB79EB74091040150910501841B4B
:100B8000950BE817F90708F055C0F093E701E093DB
:100B9000E601F90171836083A0CF8D919C9111973B
:100BA00012966C90129713967C901397A815B9051E
:100BB00059F56C0142E0C40ED11CCA14DB0420F1CB
:100BC000AC014A195B09DA011296159780F062822E
:100BD000738251834083D9016D937C93E114F104B6
:100BE00071F0D7011396FC93EE93129776CF22966D
:100BF0008C0F9D1FF90191838083F301EFCFF09358
:100C0000E901E093E80169CF4816590608F42C0180
:100C10007D01D3019ACFCB010E943B047C01009758
:100C200049F0AE01B8010E941D06C8010E94D70418
:100C3000870153CF10E000E050CFFB01DC0102C080
:100C400001900D9241505040D8F70895FB01DC010E
:100C500001900D920020E1F70895F894FFCF000075
:100C6000EA018000000000003F015F008C008C0161
:100C7000FD009B00EF000D0A00726561647920E2BF
:100C80008094207479706520736F6D657468696EE7
:0E0C9000673A00796F7520736169643A20003D
:107800000C94343C0C94513C0C94513C0C94513CE1
:107810000C94513C0C94513C0C94513C0C94513CB4
:107820000C94513C0C94513C0C94513C0C94513CA4
:107830000C94513C0C94513C0C94513C0C94513C94
:107840000C94513C0C94513C0C94513C0C94513C84
:107850000C94513C0C94513C0C94513C0C94513C74
:107860000C94513C0C94513C11241FBECFEFD8E036
:10787000DEBFCDBF11E0A0E0B1E0ECE9FFE702C060
:1078800005900D92A230B107D9F712E0A2E0B1E065
:1078900001C01D92AD30B107E1F70E942D3D0C945F
:1078A000CC3F0C94003C982F959595959595959582
:1078B000905D8F708A307CF0282F295A8091C0000B
:1078C00085FFFCCF9093C6008091C00085FFFCCF60
:1078D0002093C6000895282F205DF0CF982F809127
:1078E000C00085FFFCCF9093C6000895EF92FF92F1
:1078F0000F931F93EE24FF2487018091C00087FD22
:1079000017C00894E11CF11C011D111D81E4E8164B
:1079100082E4F8068FE0080780E0180770F3E09132
:107920000401F091050109958091C00087FFE9CF1E
:107930008091C6001F910F91FF90EF9008950E94D3
:10794000763C982F8091C00085FFFCCF9093C600B5
:1079500091362CF490330CF09053892F089597555D
:10796000892F08951F930E949F3C182F0E949F3CCF
:107970001295107F810F1F9108951F93182F882350
:1079800021F00E94763C1150E1F71F9108951F935A
:10799000182F0E94763C803249F0809103018F5F5E
:1079A000809303018530C1F01F9108958091C0003C
:1079B00085FFFCCF84E18093C6008091C00085FFE5
:1079C000FCCF1093C6008091C00085FFFCCF80E102
:1079D0008093C6001F910895E0910401F091050184
:1079E00009951F9108950E94763C803241F0809164
:1079F00003018F5F80930301853081F008958091AA
:107A0000C00085FFFCCF84E18093C6008091C00058
:107A100085FFFCCF80E18093C6000895E0910401CA
:107A2000F09105010995089540E951E08823A1F0FE
:107A30002D9A28EE33E0FA013197F1F721503040CA
:107A4000D1F72D9828EE33E0FA013197F1F7215064
:107A50003040D1F7815061F708953F924F925F9285
:107A60006F927F928F929F92AF92BF92CF92DF924E
:107A7000EF92FF920F931F93CF93DF93000080E16B
:107A80008093C4001092C50088E18093C10086E015
:107A90008093C2005098589A259A81E00E94143D24
:107AA00024E1F22E9EE1E92E85E9D82E0FE0C02ECA
:107AB00010E1B12EAA24A394B1E49B2EA6E58A2E50
:107AC000F2E57F2EE0E26E2E79E4572E63E5462E36
:107AD00050E5352E0E94763C8033B1F18133B9F107
:107AE000803409F46FC0813409F476C0823409F41B
:107AF00085C0853409F488C0803531F1823521F1A3
:107B0000813511F1853509F485C0863509F48DC0BC
:107B1000843609F496C0843709F403C1853709F423
:107B200072C1863709F466C0809103018F5F80932C
:107B30000301853079F6E0910401F0910501099582
:107B40000E94763C803351F60E94F33CC3CF0E94E2
:107B5000763C803249F78091C00085FFFCCFF092DF
:107B6000C6008091C00085FFFCCF9092C600809136
:107B7000C00085FFFCCF8092C6008091C00085FFC9
:107B8000FCCF7092C6008091C00085FFFCCF609250
:107B9000C6008091C00085FFFCCF5092C600809146
:107BA000C00085FFFCCF4092C6008091C00085FFD9
:107BB000FCCF3092C6008091C00085FFFCCFB09210
:107BC000C60088CF0E94763C863808F4BDCF0E945C
:107BD000763C0E94F33C7ECF0E94763C803809F4CC
:107BE0009CC0813809F40BC1823809F43CC1883942
:107BF00009F48FC080E00E94C73C6CCF84E10E94F2
:107C0000BD3C0E94F33C66CF85E00E94BD3C0E94D3
:107C1000F33C60CF0E94763C809306010E94763C44
:107C2000809307010E94F33C55CF0E94763C80333D
:107C300009F41DC183E00E94BD3C80E00E94C73C66
:107C400049CF0E94763C809309020E94763C809343
:107C5000080280910C028E7F80930C020E94763C79
:107C6000853409F415C18091080290910902892B8D
:107C700089F000E010E00E94763CF801E85FFE4FDA
:107C800080830F5F1F4F80910802909109020817AF
:107C9000190788F30E94763C803209F045CF809125
:107CA0000C0280FF01C16091060170910701660F0F
:107CB000771F7093070160930601A0910802B091AD
:107CC00009021097C9F0E8E0F1E09B01AD014E0F09
:107CD0005F1FF999FECF32BD21BD819180BDFA9A17
:107CE000F99A2F5F3F4FE417F50799F76A0F7B1F4B
:107CF00070930701609306018091C00085FFFCCF5F
:107D0000F092C6008091C00085FFFCCFB092C60003
:107D1000E1CE83E00E94C73CDDCE82E00E94C73CFA
:107D2000D9CE0E94763C809309020E94763C8093D3
:107D300008028091060190910701880F991F909386
:107D40000701809306010E94763C853409F4A6C0A1
:107D500080910C028E7F80930C020E94763C8032D0
:107D600009F0B8CE8091C00085FFFCCFF092C6002C
:107D7000609108027091090261157105B9F140E046
:107D800050E080910C02A82FA170B82FB27011C0E2
:107D9000BB2309F45CC0E0910601F0910701319624
:107DA000F0930701E09306014F5F5F4F46175707B7
:107DB000E8F4AA2369F3F999FECF209106013091E6
:107DC000070132BD21BDF89A90B58091C00085FFB2
:107DD000FCCF9093C6002F5F3F4F30930701209355
:107DE00006014F5F5F4F4617570718F38091C00099
:107DF00085FDE5CE8091C00085FFF8CFE0CE81E023
:107E00000E94C73C67CE0E94763C803209F08CCE3F
:107E10008091C00085FFFCCFF092C6008091C00029
:107E200085FFFCCFE092C6008091C00085FFFCCFAB
:107E3000D092C6008091C00085FFFCCFC092C600E2
:107E40008091C00085FFFCCFB092C60043CEE09188
:107E50000601F091070194918091C00085FFFCCF4D
:107E60009093C6009CCF80E10E94C73C33CE0E9415
:107E7000763C0E94763C182F0E94763C112309F430
:107E800083C0113009F484C08FE00E94C73C22CE29
:107E900080910C02816080930C02E5CE80910C02EF
:107EA000816080930C0259CF809107018823880F4D
:107EB000880B8A2180930B02809106019091070123
:107EC000880F991F90930701809306018091080203
:107ED00080FF09C080910802909109020196909359
:107EE000090280930802F894F999FECF1127E091D6
:107EF0000601F0910701C8E0D1E08091080290915D
:107F00000902103091F40091570001700130D9F34B
:107F100003E000935700E89500915700017001308D
:107F2000D9F301E100935700E89509901990009169
:107F3000570001700130D9F301E000935700E89534
:107F40001395103498F011270091570001700130FB
:107F5000D9F305E000935700E895009157000170B0
:107F60000130D9F301E100935700E895329602976A
:107F700009F0C7CF103011F00296E5CF112480919F
:107F8000C00085FFB9CEBCCE8EE10E94C73CA2CD19
:0E7F900085E90E94C73C9ECDF894FFCF80008B
:00000001FF
