:020000040000FA
:100000000C9435000C945D000C945D000C945D0024
:100010000C945D000C945D000C945D000C945D00EC
:100020000C945D000C945D000C945D000C945D00DC
:100030000C945D000C945D000C945D000C945D00CC
:100040000C94E1010C945D000C9451020C942B0271
:100050000C945D000C945D000C945D000C945D00AC
:100060000C945D000C945D007B0311241FBECFEF48
:10007000D8E0DEBFCDBF21E0A6E3B1E001C01D9214
:10008000A03EB207E1F711E0A0E0B1E0E2EBFBE057
:1000900002C005900D92A633B107D9F710E0C5E371
:1000A000D0E004C02197FE010E94DF03C433D107D2
:1000B000C9F70E9483020C94D7050C940000AF92FC
:1000C000BF92CF92DF92EF92FF920F931F93CF9345
:1000D000DF936C017B018B01040F151FEB015E01A7
:1000E000AE18BF08C017D10759F06991D601ED913C
:1000F000FC910190F081E02DC6010995892B79F7DB
:10010000C501DF91CF911F910F91FF90EF90DF908C
:10011000CF90BF90AF900895FC01538D448D252F53
:1001200030E0842F90E0821B930B541710F0CF9691
:10013000089501970895FC01918D828D981761F0C3
:10014000A28DAE0FBF2FB11D5D968C91928D9F5FDA
:100150009F73928F90E008958FEF9FEF08952FB7D0
:10016000F89480913B0190913C01A0913D01B091A8
:100170003E012FBF8093470190934801A09349010E
:10018000B0934A018FE391E00E949B0097FF26C045
:100190002FB7F89480913B0190913C01A0913D01D3
:1001A000B0913E012FBF40914701509148016091AD
:1001B000490170914A01841B950BA60BB70B409126
:1001C00043015091440160914501709146018417AB
:1001D0009507A607B707B0F28FEF9FEF0895FC01D0
:1001E000918D828D981731F0828DE80FF11D858DEC
:1001F00090E008958FEF9FEF0895FC01918D228D7F
:10020000892F90E0805C9F4F821B91098F73992703
:1002100008958FE391E00E94FD0021E0892B09F40D
:1002200020E0822F089580E090E0892B29F00E9441
:10023000090181110C9400000895FC01A48DA80F00
:10024000B92FB11DA35ABF4F2C91848D90E0019618
:100250008F739927848FA689B7892C93A089B18938
:100260008C91837080648C93938D848D981306C0D9
:100270000288F389E02D80818F7D80830895EF923D
:10028000FF920F931F93CF93DF93EC0181E0888F50
:100290009B8D8C8D98131AC0E889F989808185FF20
:1002A00015C09FB7F894EE89FF896083E889F989C2
:1002B00080818370806480839FBF81E090E0DF91C4
:1002C000CF911F910F91FF90EF900895F62E0B8D17
:1002D00010E00F5F1F4F0F731127E02E8C8D8E11D2
:1002E0000CC00FB607FCFACFE889F989808185FF39
:1002F000F5CFCE010E941D01F1CFEB8DEC0FFD2F4C
:10030000F11DE35AFF4FF0829FB7F8940B8FEA89F3
:10031000FB8980818062CFCFCF93DF93EC01888D02
:100320008823B9F0AA89BB89E889F9898C9185FD70
:1003300003C0808186FD0DC00FB607FCF7CF8C91FE
:1003400085FFF2CF808185FFEDCFCE010E941D0198
:10035000E9CFDF91CF910895FC0101900020E9F7EA
:100360003197AF01481B590BBC018FE391E00C940E
:100370005F000F931F93CF93DF93EC0188819981E6
:10038000009759F02A813B812617370730F081E02A
:10039000DF91CF911F910F9108958B016F5F7F4F78
:1003A0000E940A05009759F0998388831B830A836A
:1003B0002C813D81232B59F7FC011082E8CF80E08E
:1003C000E7CF1F920F920FB60F9211242F933F93F6
:1003D0008F939F93AF93BF9380913B0190913C018A
:1003E000A0913D01B0913E0130913A0123E0230FED
:1003F0002D3758F50196A11DB11D20933A01809328
:100400003B0190933C01A0933D01B0933E0180914C
:10041000360190913701A0913801B09139010196D0
:10042000A11DB11D8093360190933701A09338012F
:10043000B0933901BF91AF919F918F913F912F91CF
:100440000F900FBE0F901F90189526E8230F02966D
:10045000A11DB11DD2CF1F920F920FB60F92112482
:100460002F933F934F935F936F937F938F939F93BC
:10047000AF93BF93EF93FF938FE391E00E941D0131
:10048000FF91EF91BF91AF919F918F917F916F916C
:100490005F914F913F912F910F900FBE0F901F9042
:1004A00018951F920F920FB60F9211242F938F93CE
:1004B0009F93EF93FF93E0914F01F0915001808162
:1004C000E0915501F091560182FD1BC09081809111
:1004D00058018F5F8F7320915901821741F0E0918D
:1004E0005801F0E0E15CFE4F958F80935801FF9139
:1004F000EF919F918F912F910F900FBE0F901F90B2
:1005000018958081F4CFCF93DF93CDB7DEB72897CE
:100510000FB6F894DEBF0FBECDBF789484B582606D
:1005200084BD84B5816084BD85B5826085BD85B597
:10053000816085BD80916E00816080936E00109215
:100540008100809181008260809381008091810090
:100550008160809381008091800081608093800021
:100560008091B10084608093B1008091B00081607F
:100570008093B00080917A00846080937A008091AB
:100580007A00826080937A0080917A008160809303
:100590007A0080917A00806880937A001092C1007E
:1005A000E0914F01F091500182E08083E0914B0196
:1005B000F0914C011082E0914D01F0914E018FECD1
:1005C000808310925701E0915301F091540186E02D
:1005D0008083E0915101F09152018081806180839C
:1005E000E0915101F0915201808188608083E09117
:1005F0005101F0915201808180688083E091510126
:10060000F091520180818F7D808388E191E00E948A
:10061000AC0182E391E00E94AC0180E0E82E80E032
:10062000F82E8FE391E00E94FD00892B09F457C05A
:100630001A8219821C821B821E821D8270E060E079
:10064000CE0101960E94B90129813A8181112FC002
:100650002115310519F0C9010E9481041A821982FD
:100660001E821D821C821B820E94AF004D815E8112
:1006700097FD25C08A30910511F18F8318868A0174
:100680000F5F1F4FB801CE0101960E94B901882368
:1006900059F329813A818D819E81BE01695F7F4F27
:1006A000820F931F0E94D0051E830D83DDCF1E8213
:1006B0001D8264E371E0C9010E94D005D5CF698134
:1006C0007A818FE391E00E945F0082E391E00E94D3
:1006D000AC0189819A81009711F00E948104E11494
:1006E000F10409F49ECF0E940901882309F499CFEF
:1006F0000E94000096CFEFE3F1E01382128288EEB1
:1007000093E0A0E0B0E084839583A683B7838AE07A
:1007100091E09183808385EC90E09587848784ECD9
:1007200090E09787868780EC90E0918B808B81ECBE
:1007300090E0938B828B82EC90E0958B848B86EC9F
:1007400090E0978B868B118E128E138E148E0895E7
:100750002F923F924F925F926F927F928F929F92D1
:10076000AF92BF92CF92DF92EF92FF920F931F93BF
:10077000CF93DF93CDB7DEB7CA1BDB0B0FB6F89470
:10078000DEBF0FBECDBF09942A88398848885F84B0
:100790006E847D848C849B84AA84B984C884DF8021
:1007A000EE80FD800C811B81AA81B981CE0FD11D05
:1007B0000FB6F894DEBF0FBECDBFED010895EE0F6A
:1007C000FF1F0590F491E02D09940F931F93CF9391
:1007D000DF938230910510F482E090E0E091DE0139
:1007E000F091DF0130E020E0B0E0A0E0309799F434
:1007F0002115310509F44AC0281B390B2430310575
:10080000D8F58A819B816115710589F1FB0193837C
:100810008283FE0111C040815181028113814817FA
:100820005907E0F04817590799F4109761F01296AC
:100830000C93129713961C933296CF01DF91CF91B0
:100840001F910F9108950093DE011093DF01F4CF03
:100850002115310551F04217530738F0A901DB018A
:100860009A01BD01DF01F801C1CFEF01F9CF9093EB
:10087000DF018093DE01CDCFFE01E20FF31F8193F4
:1008800091932250310939832883D7CF2091DC01FD
:100890003091DD01232B41F42091020130910301BD
:1008A0003093DD012093DC012091000130910101A2
:1008B0002115310541F42DB73EB740910401509107
:1008C0000501241B350BE091DC01F091DD01E217FD
:1008D000F307A0F42E1B3F0B2817390778F0AC0163
:1008E0004E5F5F4F2417350748F04E0F5F1F509340
:1008F000DD014093DC01819391939FCFF0E0E0E034
:100900009CCFCF93DF930097E9F0FC0132971382DD
:100910001282A091DE01B091DF01ED0130E020E014
:100920001097A1F420813181820F931F2091DC0167
:100930003091DD012817390709F061C0F093DD011E
:10094000E093DC01DF91CF910895EA01CE17DF0734
:10095000E8F54A815B819E0141155105B1F7E90136
:10096000FB83EA8349915991C40FD51FEC17FD070A
:1009700061F4808191810296840F951FE90199832A
:100980008883828193819B838A83F0E0E0E01296E2
:100990008D919C9113970097B9F52D913C911197EA
:1009A000CD010296820F931F2091DC013091DD0171
:1009B0002817390739F6309751F51092DF01109258
:1009C000DE01B093DD01A093DC01BCCFD383C283F1
:1009D00040815181840F951FC817D90761F44E5F7C
:1009E0005F4F88819981480F591F518340838A81C5
:1009F0009B81938382832115310509F0B0CFF09359
:100A0000DF01E093DE019ECFFD01DC01C0CF138248
:100A10001282D7CFB0E0A0E0E0E1F5E00C94AA03A9
:100A20008C01009751F4CB010E94E5038C01C801B1
:100A3000CDB7DEB7E0E10C94C603FC01E60FF71F6B
:100A40009C0122503109E217F30708F49DC0D90137
:100A5000CD91DC911197C617D70798F0C530D10515
:100A600030F3CE0104978617970708F3C61BD70B00
:100A70002297C193D1936D937C93CF010E948104FF
:100A8000D6CF5B01AC1ABD0A4C018C0E9D1EA09105
:100A9000DE01B091DF01512C412CF12CE12C10979B
:100AA00031F58091DC019091DD018815990509F0FF
:100AB0005CC04616570608F058C08091000190911E
:100AC0000101009741F48DB79EB740910401509108
:100AD0000501841B950BE817F90708F055C0F09342
:100AE000DD01E093DC01F90171836083A0CF8D917A
:100AF0009C91119712966C90129713967C90139775
:100B0000A815B90559F56C0142E0C40ED11CCA14F0
:100B1000DB0420F1AC014A195B09DA011296159742
:100B200080F06282738251834083D9016D937C93FC
:100B3000E114F10471F0D7011396FC93EE93129730
:100B400076CF22968C0F9D1FF90191838083F3014C
:100B5000EFCFF093DF01E093DE0169CF481659062D
:100B600008F42C017D01D3019ACFCB010E94E5034B
:100B70007C01009749F0AE01B8010E94C705C80189
:100B80000E948104870153CF10E000E050CFFB01A9
:100B9000DC0102C001900D9241505040D8F70895F9
:100BA000FB01DC0101900D920020E1F70895F8941B
:100BB000FFCF0000E0018000000000003F015F0067
:100BC0008C008C01FD009B00EF0072656164792050
:100BD000E28094207479706520736F6D6574686924
:080BE0006E673A000D0A0000E7
:107E0000112484B714BE81FFF0D085E080938100F7
:107E100082E08093C00088E18093C10086E0809377
:107E2000C20080E18093C4008EE0C9D0259A86E02C
:107E300020E33CEF91E0309385002093840096BBD3
:107E4000B09BFECF1D9AA8958150A9F7CC24DD24C4
:107E500088248394B5E0AB2EA1E19A2EF3E0BF2EE7
:107E6000A2D0813461F49FD0082FAFD0023811F036
:107E7000013811F484E001C083E08DD089C08234E0
:107E800011F484E103C0853419F485E0A6D080C0E4
:107E9000853579F488D0E82EFF2485D0082F10E0AE
:107EA000102F00270E291F29000F111F8ED06801E7
:107EB0006FC0863521F484E090D080E0DECF843638
:107EC00009F040C070D06FD0082F6DD080E0C81688
:107ED00080E7D80618F4F601B7BEE895C0E0D1E017
:107EE00062D089930C17E1F7F0E0CF16F0E7DF06D8
:107EF00018F0F601B7BEE89568D007B600FCFDCFD4
:107F0000A601A0E0B1E02C9130E011968C91119780
:107F100090E0982F8827822B932B1296FA010C0160
:107F200087BEE89511244E5F5F4FF1E0A038BF0790
:107F300051F7F601A7BEE89507B600FCFDCF97BE46
:107F4000E89526C08437B1F42ED02DD0F82E2BD052
:107F50003CD0F601EF2C8F010F5F1F4F84911BD097
:107F6000EA94F801C1F70894C11CD11CFA94CF0C13
:107F7000D11C0EC0853739F428D08EE10CD085E9AC
:107F80000AD08FE07ACF813511F488E018D01DD067
:107F900080E101D065CF982F8091C00085FFFCCF94
:107FA0009093C60008958091C00087FFFCCF809118
:107FB000C00084FD01C0A8958091C6000895E0E648
:107FC000F0E098E1908380830895EDDF803219F02E
:107FD00088E0F5DFFFCF84E1DECF1F93182FE3DFCA
:107FE0001150E9F7F2DF1F91089580E0E8DFEE27F6
:047FF000FF270994CA
:027FFE00040479
:00000001FF
